:020000040000FA
:08000000803102288731EC2F4A
:100E80000C34063403340934873151278731D0308C
:100E9000F0000730F10087318F278731472F8031ED
:100EA000022851010D088F3960388D00F0308D0512
:100EB0001308F839063893007E01B801C301CE014A
:100EC00040019101920110309300303043019000B5
:100ED0008F0155307D018F00AA308F000F10143024
:100EE000C60014307E01A3001530A50010307D012E
:100EF000CB0010307E01A10055307D018F00AA305B
:100F00008F000F10203042019E001E1590309D0072
:100F100008309F0003309C0040309B0008007A0896
:100F2000F6007908F5007808F4007708F3007B08EC
:100F3000733E860087010108F2000330F236890B08
:100F40009E2F7218A42FA72F40011714A92F40011C
:100F500017107B08733E860087010108F2000230FB
:100F6000F236890BB02F7218B62FB92F4001171522
:100F7000BB2F400117117B08733E860087010108D3
:100F8000F2000130F236890BC22F7218C82FCB2F16
:100F900040019714CD2F400197107B08733E8600C7
:100FA00087010118D42FD72F40019715D92F400161
:100FB00097112030F2002A30890BDC2FF20BDC2F46
:100FC0000130F2007208FB0704307B02031CE92F9A
:100FD000EA2FEB2FFB010800873140278731F7000C
:100FE000873141278731F800873142278731F9005F
:100FF000873143278731FA00FB0140018731442FB5
:020000040001F9
:0A000E00EC3FFC3F9F3FFF1FFF3F48
:00000001FF
