:020000040000FA
:04000000803114280F
:100008007E1480314E018F1E0A280B2812284201C7
:100018001908F0007008FC004E018F127E100900CC
:1000280080311628FC0120308400003085002830FB
:1000380082318B2280317E10400181314B29510160
:100048000D088F3960388D00F0308D051308F839A8
:10005800063893007E01B801C3018030CE0040010C
:1000680091010330920091309300303043019000A9
:100078008F018030990028309A009C010930970040
:100088008430410193001808C0391138980017309E
:100098009E00FC309A0555307D018F00AA308F00F4
:1000A8000F101630C50014307E01A60014307D01F3
:1000B800C60015307E01A50008307D01C900173043
:1000C8007E01980009307D01C80016307E01990034
:1000D80010307D01CB0010307E01A10055307D012C
:1000E8008F00AA308F000F10203042019E001E158D
:1000F80090309D0008309F0000309C0044309B00E9
:1001080045011008F0390138900070308E043F30F6
:100118008D0009307E019D0044011E08FC3901381C
:100128009E0046018E170E160F308E048C018D012D
:100138000A307E019C0044011E08F33904389E00F1
:100148004601921712160F309204900191010B305C
:100158007E019B0044011E08CF3910389E004601DD
:10016800961716160F309604940195010C307E01EF
:100178009A0044011E083F3940389E0046019A17EC
:100188001A160F309A049801990145018E174E01ED
:100198008F1299160B178B1708004001CD007A08AB
:1001A80086008701403FC800413FC90048088400D5
:1001B800490885001200253A031DE328E428282968
:1001C8007A08860087010130810741310318810AC6
:1001D800C201C301C601C701FF30C400FF30C5001A
:1001E8007A0886008701403FC800413FC900480897
:1001F8008400490885001200253A031D04290529B1
:100208001D297A08860087010130810741310318CA
:10021800810A2530F2000030F3004D08C800480874
:10022800F4008131902180310130FA000030FB0068
:100238004A297A088600870101308107413103186D
:10024800810AFA01FB014A297A0886008701403FA2
:10025800C800413FC90048088400490885000008D3
:10026800CA00CB014A08F2004B08F3004D08CC0045
:100278004C08F4008131902180317A08860087018A
:100288000130810741310318810A1829080080319B
:10029800232081318131CF21813105304001DD00BA
:1002A8000F30DC00F130890B5729DC0B5729DD0BA7
:1002B800572985304001D6008230D7008231372255
:1002C800813158304001D6008230D7008231372240
:1002D800813191304001D6008230D70082313722F7
:1002E80081317A304001DD00C130DC008130890B7A
:1002F8007B29DC0B7B29DD0B7B2900329630400102
:10030800D6008230D7008231372281315A304601F7
:100318008D008A2980311428740803199429952995
:100328009A297408031D99299A299F2972088231EC
:1003380065228131CE297408033E860087011600A4
:1003480001040319A829A929C6297408033E8600AF
:100358008701403FF500413FF600740A8600870197
:10036800403FF700413FF8007808803AF9007608E6
:10037800803A7902031DC229750877020318C52936
:10038800C629CE29740A86008701013081074131C8
:100398000318810A08003830823149228131393006
:1003A80082314922813114308231492281317030C1
:1003B80082314922813156308231492281316C3073
:1003C800823149228131D030F700CA30890BEA29BD
:1003D800F70BEA2938308231492281310C308231D9
:1003E800492281310130823149228131080040019E
:1003F800D3004F08D5004E08D400C001C101152A0A
:100408005430D1005108FA005008D2005208FB00BD
:1004180053088031D12081317A084001C0077B0818
:10042800C13D54088400550885001200031D1D2A8B
:100438001E2A042A4108CF004008CE000800F40014
:1004480082317E228231740882316E2282317208B2
:1004580082316E228231730882316E22823182317A
:1004680077228231080058304001D8005808DB0054
:100478005708CF005608CE005B30D8005808D00087
:1004880000308131FB2182310800F600F201760844
:10049800F5007508F3007C30823123228231A030C8
:1004A8000032890B542A0800533452342C34333424
:1004B80032343034303430343034303430340A3438
:1004C8000034F10042019E1C6A2A6B2A662A7108D0
:1004D8009A000800F1007108430196001919752A5D
:1004E800762A722A080043011B151B197C2A7D2ACB
:1004F800792A080043011B141B18832A842A802A9E
:100508000800533446342C3431340A34003464003F
:1005180080010131890B8C2A003452342C34313457
:0A0528000A34003441340A34003470
:020000040001F9
:0A000E00EC3FFC3F9F3FFF3FFF3F28
:00000001FF
