:020000040000FA
:08000000803102288731E42F52
:10000C00640080010131890B07280034F500F101EF
:10001C007508F4007408F2007C3080312A2080319D
:10002C00A0300032890B17280800F8007608F7007A
:10003C000530F735FF3E031D1F28773578073F3E07
:10004C0080310C2080310800F3008F31CF278031B4
:10005C0073088F31E527803171088F31E5278031A6
:10006C0072088F31E52780318F31DA278031080013
:10007C00CB30FD007D084001EF0041014A084001F2
:10008C00E600410149084001E5006F30FD007D08A4
:10009C00E700003081316321803108007008D03EC8
:1000AC00F200FF30713DF300003073020A30031987
:1000BC007202031C62286428013065280030F400A9
:1000CC00F5017408F0007508F1000800F4007408DC
:1000DC00F2007208F30076280130F2007208F4077F
:1000EC007408860087010108031D7D287E2872286C
:1000FC0073087402F000F101F01BF103080074089E
:10010C00803AF50080307502031D8E280130730291
:10011C000318912892289E287309F5007409F6009B
:10012C00F50A0319F60A7508F3007608F4009E2800
:10013C000800F401F501701CA428A528A928720850
:10014C00F4077308F53D0130F235F30D890BAA283D
:10015C000130F136F00C890BAF2870087104031DC7
:10016C00B828B928A1287508F1007408F000080017
:10017C00F401F40A2030700671040319C628C7284C
:10018C00D7287008F73EF200FF30713DF3000030C5
:10019C007302053003197202031CD528D628D72800
:1001AC00F4017408F200F3017208F0007308F10016
:1001BC0008004001AB00A901AA01F7282808A500F6
:1001CC00A6012508F8002608F9007B08A7002708D7
:1001DC00FA0081319421803101304001A9070030AF
:1001EC00AA3D29082B07A5002508860087010108D0
:1001FC00A6002608A8002808031D05290629E428BE
:10020C000800383080310C208131393080310C209D
:10021C008131143080310C208131703080310C20D0
:10022C008131563080310C2081316C3080310C2082
:10023C008131D030F600CA30890B2229F60B2229E5
:10024C00383080310C2081310C3080310C208131E0
:10025C00013080310C208131080082312D22813116
:10026C0081310721813105304101CE000F30CD00A5
:10027C00F130890B3F29CD0B3F29CE0B3F29F601DD
:10028C00F60A013080311B208131410113141318FF
:10029C00502951294D290D08D0000C08CF000030F1
:1002AC00C9009030CA005008CC004F08CB008031F8
:1002BC003E2081314529803102284001EA00660840
:1002CC00EC006508EB004101A001A10181296B3014
:1002DC00E8006808D2006708E9006908D3006A08DA
:1002EC00853127258131400152084101A007400189
:1002FC0053084101A13D40016B0884006C08850046
:10030C001200031D8A298B296D2941012108400106
:10031C00E600410120084001E50008007A080319B5
:10032C00982999299E297A08031D9D299E29A3297C
:10033C0078088F31C9278131D3297A08033E86008A
:10034C008701160001040319AC29AD29CB297A08C1
:10035C00033E86008701403F4001A000413FA100C1
:10036C007A0A86008701403FA200413FA300230880
:10037C00803AA4002108803A2402031DC7292008D2
:10038C0022020318CA29CB29D3297A0A86008701AD
:10039C000130810741310318810A08004001B30084
:1003AC004101261CDA29DB29E42940013308FC0031
:1003BC007C08FB002C088031DF2081314001AE1B12
:1003CC00E829E929EE292E08B2002D08B100F02900
:1003DC00B101B201AF01B001042A2030F8000030A5
:1003EC00F90040013308FC007C08FA0081319421AB
:1003FC00813101304001AF070030B03D3008803A08
:10040C00FC003208803A7C02031D0E2A31082F02B0
:10041C00031C112A122AF32941012618162A172A1D
:10042C00202A40013308FC007C08FB002C0880319A
:10043C00DF20813140012C0880316C20813140015A
:10044C0031087007AC003208713DAD000800510155
:10045C000D088F3960388D00F0308D051308F83990
:10046C00063893007E01B801C3018030CE004001F4
:10047C009101033092009030930030304301900092
:10048C008F018030990028309A009C010930970028
:10049C00843041019300C030980517309E00FC3029
:1004AC009A0555307D018F00AA308F000F10163041
:1004BC00C50014307E01A60014307D01C600153035
:1004CC007E01A50008307D01C90017307E0198001F
:1004DC0009307D01C80016307E01990010307D0175
:1004EC00CB0010307E01A10055307D018F00AA3069
:1004FC008F000F10203042019E001E1590309D0081
:10050C0008309F0003309C0040309B0008004001E5
:10051C00A701A801A001A101972A0130F60700301C
:10052C00F73DA601A60A760884007708850012001C
:10053C00203A0319A22AA32AB82A7608840077083D
:10054C0085000008F73EF800FF3003180030F90072
:10055C0000307902053003197802031CB62AB72A39
:10056C00B82AA6012608F800F9017808A200790833
:10057C00A30022082304031DC42AC52A932ACF2AC8
:10058C000130A0000030A1000130F6070030F73D2B
:10059C00032B76088400770885000008F800F90121
:1005AC007908003A0319DB2A032B78082B3A031934
:1005BC00CA2A063A0319C62A032B76088400770840
:1005CC0085000008F8002808F1002708F0000A3020
:1005DC00F2000030F30080319F2082317108FA0064
:1005EC0078087002F900031CFA037908303E4001C8
:1005FC00A70000307A3DA800CA2A76088400770844
:10060C0085000008D03EF800FF3003180030F900D8
:10061C00003079020A3003197802031C162B182BB0
:10062C000130192B0030FA00FB017A08A4007B087A
:10063C00A50024082504031D242B252BE32A2008C0
:10064C002104031D2A2B2B2B372B2709F8002809F3
:10065C00F900F80A0319F90A7808F6007908F70086
:10066C003B2B2808F7002708F6000800F201283079
:10067C00860000308700473FF000F01F462B472BC9
:10068C00682B4001A809A909AA09AB09AC09AD0955
:10069C00AE09AF09A80A031D662BA90A031D662B18
:1006AC00AA0A031D662BAB0A031D662BAC0A031D9D
:1006BC00662BAD0A031D662BAE0A031D662BAF0A13
:1006CC00F201F20A2030860000308700473FF0002C
:1006DC00F01F712B722B912B4001A009A109A209CB
:1006EC00A309A409A509A609A709A00A031D912B12
:1006FC00A10A031D912BA20A031D912BA30A031D12
:10070C00912BA40A031D912BA50A031D912BA60A5C
:10071C00031D912BA70A4001200821042204230465
:10072C00240425042604270403199D2B9E2BF12B4E
:10073C00F101F10AAD2BA035A10DA20DA30DA40D55
:10074C00A50DA60DA70D0130F0007008F107A71F2D
:10075C00B02BB12BA12B27082F02031DCF2B260862
:10076C002E02031DCF2B25082D02031DCF2B240891
:10077C002C02031DCF2B23082B02031DCF2B220889
:10078C002A02031DCF2B21082902031DCF2B200881
:10079C002802031CD22BD32BE32B2008A802210800
:1007AC00A93B2208AA3B2308AB3B2408AC3B2508F9
:1007BC00AD3B2608AE3B2708AF3BA736A60CA50CD5
:1007CC00A40CA30CA20CA10CA00C0130F102031D73
:1007DC00F02BF12BB12B72080319F52BF62B142CE3
:1007EC00A809A909AA09AB09AC09AD09AE09AF0959
:1007FC00A80A031D142CA90A031D142CAA0A031DF4
:10080C00142CAB0A031D142CAC0A031D142CAD0ABA
:10081C00031D142CAE0A031D142CAF0A400128082A
:10082C00A0002908A1002A08A2002B08A3002C086C
:10083C00A4002D08A5002E08A6002F08A70008006C
:10084C00F2012030860000308700473FF000F01F97
:10085C00302C312C522C4001A009A109A209A3096A
:10086C00A409A509A609A709A00A031D502CA10AD1
:10087C00031D502CA20A031D502CA30A031D502C3F
:10088C00A40A031D502CA50A031D502CA60A031DF7
:10089C00502CA70AF201F20A28308600003087009B
:1008AC00473FF000F01F5B2C5C2C7F2C4001A8090B
:1008BC00A909AA09AB09AC09AD09AE09AF09A80A87
:1008CC00031D7B2CA90A031D7B2CAA0A031D7B2C60
:1008DC00AB0A031D7B2CAC0A031D7B2CAD0A031D3C
:1008EC007B2CAE0A031D7B2CAF0A0130F000700884
:1008FC00F20673308600003087000830F0000030BC
:10090C001E00F00B862C4001200821042204230435
:10091C0024042504260427040319952C962CF22C68
:10092C00F101F10AA52CA035A10DA20DA30DA40D6A
:10093C00A50DA60DA70D0130F0007008F107A71F3B
:10094C00A82CA92C992CF335F40DF50DF60DF70DFB
:10095C00F80DF90DFA0D27082F02031DCF2C2608D0
:10096C002E02031DCF2C25082D02031DCF2C24088D
:10097C002C02031DCF2C23082B02031DCF2C220885
:10098C002A02031DCF2C21082902031DCF2C20087D
:10099C002802031CD22CD32CE42C2008A8022108FA
:1009AC00A93B2208AA3B2308AB3B2408AC3B2508F7
:1009BC00AD3B2608AE3B2708AF3B7314A736A60CFD
:1009CC00A50CA40CA30CA20CA10CA00C0130F102E0
:1009DC00031DF12CF22CA92C72080319F62CF72C00
:1009EC00152DF309F409F509F609F709F809F909C0
:1009FC00FA09F30A031D152DF40A031D152DF50A2A
:100A0C00031D152DF60A031D152DF70A031D152DB3
:100A1C00F80A031D152DF90A031D152DFA0A730882
:100A2C004001A0007408A1007508A2007608A3007C
:100A3C007708A4007808A5007908A6007A08A70012
:100A4C0008004001E400520886008701403FD400B2
:100A5C00413FD50054088400550885001200253A02
:100A6C00031D392D3A2D522E520886008701013074
:100A7C00810741310318810A4101A201A301A6019A
:100A8C00A701FF30A400FF30A500400152088600EA
:100A9C008701403FD400413FD500540884005508DD
:100AAC00850012002A3A031D5C2D5D2D7D2D520808
:100ABC00860087010130810741310318810A5308F0
:100ACC008600870101088400850102308107003F00
:100ADC004101A200013FA300A31F752D762DBF2D50
:100AEC002614A209A309A20A0319A30ABF2D5208AE
:100AFC0086008701403FF600413FF70082318D228E
:100B0C00853177084101A3007608A200952D520883
:100B1C00860087010130810741310318810A4001A9
:100B2C00520886008701403FD400413FD50054084D
:100B3C008400550885000008D03ED600FF3003180D
:100B4C000030D700003057020A3003195602031C3C
:100B5C00B02DB22D0130B32D0030D800D90158087A
:100B6C00E2005908E30062086304031DBE2DBF2D8B
:100B7C008D2D4001520886008701403FD400413F33
:100B8C00D50054088400550885001200643A0319F6
:100B9C00D02DD12DE22D520886008701403FD40084
:100BAC00413FD50054088400550885001200693A6D
:100BBC00031DE12DE22D1D2E520886008701013008
:100BCC00810741310318810A530886008701010807
:100BDC008400850102308107003FD400013FD5001D
:100BEC005408DA005508DB00890D893B8909DC00C3
:100BFC00DD00DE00DF00E000E1005A08B4005B0815
:100C0C00B5005C08B6005D08B7005E08B8005F0868
:100C1C00B9006008BA006108BB006408863176260A
:100C2C00853140013508D3003408D200752E5208A6
:100C3C0086008701403FD400413FD5005408840012
:100C4C00550885001200253A031D2D2E2E2E472EF9
:100C5C005208860087010130810741310318810A4F
:100C6C002530F8000030F9006408D4005408FA006C
:100C7C0081319421853101304001D2000030D30004
:100C8C00752E520886008701013081074131031807
:100C9C00810AD201D301752E520886008701403F8C
:100CAC00D400413FD5005408840055088500000845
:100CBC00D600D7015608F8005708F9006408D80088
:100CCC005808FA0081319421853140015208860080
:100CDC0087010130810741310318810A412E080038
:100CEC004001C3003408C8003508C9003608CA00E2
:100CFC003708CB003808CC003908CD003A08CE00B4
:100D0C003B08CF004830860000308700473FBC00CE
:100D1C00BC1B912E932E0130942E00304001BD004F
:100D2C00BE013D08C6003E08C7004608470403192B
:100D3C00A02EA12EBF2EC809C909CA09CB09CC09FE
:100D4C00CD09CE09CF09C80A031DBF2EC90A031D40
:100D5C00BF2ECA0A031DBF2ECB0A031DBF2ECC0A01
:100D6C00031DBF2ECD0A031DBF2ECE0A031DBF2EA1
:100D7C00CF0A4101A51BC32EC42EC82EFD30A605DB
:100D8C00FF30A7052508803A4001BC0080303C02AA
:100D9C00031DD32E0130410124020318D62ED72E69
:100DAC00DD2E01304001C1000030C200E52E4101B2
:100DBC0025084001C200410124084001C100410145
:100DCC0023084001C500410122084001C400460827
:100DDC004704031DF22EF32EF82E4101261DF72E8B
:100DEC00F82EFD2EFF304001C407FF30C53D1F30EB
:100DFC004001D0000030D1004101C8016D2FFF30FF
:100E0C004001D007FF30D13D0A30A000A101A20162
:100E1C00A301A401A501A601A7014808A80049083F
:100E2C00A9004A08AA004B08AB004C08AC004D08BE
:100E3C00AD004E08AE004F08AF0083313C23863125
:100E4C0040012108F4002008F30080318520863110
:100E5C007308303E4001BC005008A93E8600870153
:100E6C003C088100FF30C107FF30C23DFF30C40792
:100E7C00FF30C53D0A30A000A101A201A301A401CD
:100E8C00A501A601A7014808A8004908A9004A081D
:100E9C00AA004B08AB004C08AC004D08AD004E0846
:100EAC00AE004F08AF008431262486314001200863
:100EBC00C8002108C9002208CA002308CB00240856
:100ECC00CC002508CD002608CE002708CF00400115
:100EDC005108803ABC0080303C02031D772F013052
:100EEC005002031C7A2F7B2FA82F4001480849047D
:100EFC004A044B044C044D044E044F04031D872F2D
:100F0C00882F052F4208803ABC0080303C02031D1C
:100F1C00912F013041020318942F952F052F40017A
:100F2C004508803ABC0080303C02031D9F2F0130E5
:100F3C004402031CA22FA32FA82F4101A618A72FF0
:100F4C00A82F052F400146084704031DAE2FAF2FD5
:100F5C00B42F4101261DB32FB42FD02FFF304001E9
:100F6C00D007FF30D13D46084704031DBE2FBF2FCD
:100F7C00C42F2B30BF000030C000C82F2D30BF0055
:100F8C000030C0003F08BC005008A93E8600870115
:100F9C003C08810040015008A93EBC003C08AC0054
:100FAC004508AE004408AD0043088131D421863198
:100FBC0040012D08B5002C08B400080041018F3108
:100FCC00C5278731D1008F31C6278731D2008F31A9
:100FDC00C7278731D3008F31C8278731D400A03081
:100FEC008400003085002930803106208731400193
:040FFC0081313329E3
:101F8A000C34063403340934F70077088F31F2270A
:101F9A008F3108004E010F1143011B144E010F1D12
:101FAA00D72FD82FD32F0F1108004E010F1143013D
:101FBA001B154E010F1DE22FE32FDE2F0F11080014
:101FCA00F0004E010F117008430196004E010F1DDB
:101FDA00EF2FF02FEB2F0F110800F6004030F4001E
:101FEA007408F1007608F5007508F2007C3080313B
:101FFA002A208F3108002534343464340A340034FA
:020000040001F9
:0A000E00EC3FFC3F9F3FFF1FFF3F48
:00000001FF
